:020000040800F2
:1000000028070020D90000086D3C00081D230008C7
:1000100000000000000000000000000000000000E0
:10002000000000000000000000000000CB3C0008C1
:100030000000000000000000C93C0008093D000865
:10004000EB000008EB00000800000000EB000008D7
:10005000EB000008451E0008651E0008851E00080C
:1000600000000000EB000008EB00000800000000AA
:10007000EB000008EB000008EB00000800000000A7
:10008000EB0000089D30000800000000EB000008B5
:100090000000000000000000000000000000000060
:1000A0000000000000000000000000000000000050
:1000B0000000000000000000EB000008000000004D
:1000C0000448854600F064F800480047F101000844
:1000D000C046C0462807002004488047044800471F
:1000E000FEE7FEE7FEE7FEE7FEE7FEE7913D0008DC
:1000F000C100000830B50B46014600202022012433
:1001000009E00D46D5409D4205D31D469540491B4B
:100110002546954040191546521E002DF1DC30BD94
:1001200070B500242546002801DA01244042002948
:1001300001DA01254942FFF7DDFFAC4200D0404221
:10014000002C00D0494270BD0549064A086850435A
:10015000054A8018086040087047014908607047E8
:100160003C0200206D4EC64139300000D2B201E0A1
:100170000270401C491EFBD270470022F6E710B502
:1001800013460A4604461946FFF7F0FF204610BD05
:10019000064C0125064E05E0E36807CC2B430C3CDA
:1001A00098471034B442F7D3FFF78EFF5841000848
:1001B0007841000830B58C180278401C13071B0FDB
:1001C00001D10378401C120906D10278401C03E0DB
:1001D00005780D70401C491C5B1EF9D101E00B70C5
:1001E000491C521EFBD1A142E6D3002030BD0000C5
:1001F00010B50122D2060020074B810054585C50F4
:10020000401CC0B23028F8D3012004494007886060
:1002100003F0F0FD002010BD0000002000ED00E024
:10022000F3B581B0184901220A7000240027002587
:10023000164E174908401749886201F07DFE80B2CA
:100240000299002903D00298801C00900FE00E4A0A
:1002500000211170FEBD01F06FFE80B2A84200D9EE
:100260000546B04200D206463F18641CE4B200982E
:100270008442F0D3781B801B0299FFF73BFF80B2CA
:10028000014A00211170FEBD19010020FFFF00008E
:10029000FF1B0000002401400CB5002001900090DD
:1002A00010498868C007C00F00281AD1C8688007A5
:1002B000800F0090C86880088000C8608868152298
:1002C00090434A05104388608868C00F0028FBD11E
:1002D0000A2000F049FC0098CA6892089200024384
:1002E000CA600CBD0024014010B5012002F0A2FE3E
:1002F000012292051B48016803239B059943114382
:1003000001604206184801690901090911430161A8
:10031000C16818229143C160C1689143C160C1683E
:10032000012292039143C16005214269D208D200A3
:100330000A434261C168372292019143C160C1689A
:1003400042149143C1608214C16891431143C1605A
:10035000C168042291431143C160C1689203914373
:10036000C16010BD082701400024014000B50549C7
:100370008868054A1040401C8860052000F0F4FBA6
:1003800000BD000000240140EAFFFF7F10B50648D1
:1003900002F042FD0120000502F056FDFFF77CFF50
:1003A000FFF7A2FF10BD00000024014010B501209E
:1003B000C00702F03DFD02F063FE1848016A89079C
:1003C000C90F0029FAD04169032292049143012206
:1003D00092041143416107204002114CE1688143BE
:1003E0000143E1601001E16881430143E160A068DD
:1003F00002210843A060112003F03AFC00211120E3
:1004000003F040FC206901210843206119214901C2
:10041000A069000C00040843A06110BD4010024018
:10042000007C00407CB503210904012002F076FD28
:1004300001240094684604710025457102268671E6
:1004400002F00EFD0021052003F01CFC052003F046
:100450000FFC2E49002002F061FD4020009068460C
:1004600004714571867102F0FBFC0021072003F046
:1004700009FC072003F0FCFBE002009068460471D1
:100480004571867102F0ECFC0021072003F0FAFBB5
:10049000072003F0EDFB1E49002002F03FFD200283
:1004A0000090684604714571867102F0D9FC002104
:1004B000072003F0E7FB072003F0DAFB15490020D3
:1004C00002F02CFD80200090684604714571847113
:1004D00002F0C6FC0021072003F0D4FB072003F044
:1004E000C7FB31210903002002F018FD0420009011
:1004F000684604714571847102F0B2FC0021062047
:1005000003F0C0FB062003F0B3FB7CBD011001002B
:10051000020001000118010010B50120000702F0DF
:1005200087FC094801684215114301600168021403
:10053000114301600548026904210A43026130BF8A
:1005400002698A43026110BD0070004000ED00E0C6
:1005500000B587B00D48006A400414D401F0BCFE19
:1005600001F0A6FE08200090FF2000020590F12077
:1005700000020690684601F0D7FD01F0C7FD01F0CA
:1005800089FE01F07DFE07B000BD000000200240A2
:1005900000B509490869400840000861086901225E
:1005A000104308614B20C00000F0DEFA0869022207
:1005B00090431043086100BD007C0040F8B58E4DAB
:1005C0000027297B2846403000297DD1014680390B
:1005D0000446603C4A78E37D1A4375D04F7047600B
:1005E000E7750220854988620A2000F0C3FA264692
:1005F000E036706AB062776203F01EFD02207F4928
:100600008861204660302146806A6031C862B16AE4
:1006100071627B49884200D2E7777949764B49423B
:10062000FF26403341182D360122B14201D2E27734
:1006300033E0E1210901411A372902D20221E17791
:100640002BE0704941182D2902D20321E17724E0E3
:100650006C492D3941182D2902D20421E1771CE083
:1006600068495A3941182D2902D20521E17714E051
:100670006449873941183C2902D20621E1770CE010
:100680006049C3394118322902D20721E17704E0D9
:100690005D49884201D30821E177E17F29716E79B4
:1006A000761CF6B26E71B4461E6B36181E63664633
:1006B000012E7BD16F71544EC836B04202D3667E94
:1006C000082E1AD0504E00E092E09636B04200D28A
:1006D000EF7049484038067D002E01D0761E067521
:1006E000EE78012E0BD0467E002E02D047760226F1
:1006F0000675067D002E09D018E0EA70E9E7467E0F
:10070000002EF6D1427602260675F2E7467E002ECE
:1007100006D0867F002E09D18277E270AA7005E0AC
:10072000867F002E02D087776272AF70227E002A09
:1007300003D027766177A1771DE0344EDA68B242A4
:100740000ED3627F91420BD92978062901D2491C28
:100750002970297806290ED12F70521C62770AE081
:10076000627F914206D269780A2901D1521E6277CE
:100770002F7000E02F70C17A002909D00820607620
:10078000E07620776077A07705206870A7762BE069
:10079000617F6176C079002802D0A07E00280CD04D
:1007A000A776E07E814202D9607603E01DE08142B7
:1007B00000D0E176607E207709E0207F814201D27F
:1007C000607602E0814200D02177607EE076607E34
:1007D000A17F884203D9DF600921697002E0884265
:1007E00000D26F706077A0771F63607E6876F8BD77
:1007F0006F710763F8BD0000040100200004005081
:10080000E40C0000B9F1FFFF3C0F000060EA0000BB
:1008100070B5124C0026207B00281BD003F0D2FBC1
:10082000214640318D6A496FA8002818FFF762FC05
:10083000AF2140190901884203D2A079401CA07160
:1008400001E0A6716672A079322802D1A67101205A
:10085000607270BDA671667270BD00000401002058
:10086000F8B5584EB06F002876D17079002801D0C5
:10087000401E707105208021000702F0B5FB0521A4
:100880000125002401280CD0B079002801D0B471D2
:1008900071714C4F707980373B46403B002806D041
:1008A0003CE0B0790028F4D1B5717171F1E7B0790D
:1008B00000281AD0F079002830D1F57135721C72F9
:1008C000F07A00280BD0187B002827D100F03AF9E5
:1008D0001D747D200001786102F044FA1EE09D73D2
:1008E0006320D87302F03EFA18E0F079002815D0A2
:1008F000F47175729C731C7432482030807E00281D
:1009000002D1324830490164187B002806D100F03A
:1009100019F91D720720B86402F024FA197BFF2030
:100920002D30002909D1F179002906D0274A116C10
:10093000002902D1D16900290FD03861197BF079E3
:1009400001432248026C114306D1C069002803D13B
:100950009878002800D1F472F8BD3969002901D0D7
:10096000491E39619978002905D0B17A002907D14B
:10097000B572386104E0B17A002901D0B4723861EF
:1009800038690028DAD1B07A00280ED0F07A002831
:10099000D4D1F57235739C7300F0D4F81D747D20AA
:1009A0000001786102F0DEF9C8E7F07A0028C5D0CE
:1009B000F47275731C749D736320D87302F0D2F9BE
:1009C000BCE70000C400002060220000C401002039
:1009D000F8B5544E35462C46F17B2034A07C40358A
:1009E000002901D000283ED1317C002901D0002807
:1009F00039D1F179002936D1B179002933D1297B58
:100A0000002930D1B17E002904D0002802D0F17F26
:100A1000002928D0F17E002901D0002823D1217897
:100A2000002901D000281ED1317F002901D00028E3
:100A300019D16178002901D0002814D1A17B0029A7
:100A400011D1317E002904D0002802D0707F002807
:100A500009D0A87C002806D13348406A002802D17A
:100A6000E07D002801D0082030703078002802D0C6
:100A7000401E3070F8BD01F07DFA08202B498861D6
:100A8000000305273F07B861294802F073F901F018
:100A90003DFC294927480860FFF77AFD022211032F
:100AA000384602F0B2FA022020498862FFF7BAFC09
:100AB0000027FFF731FDE87D002804D01E491D48BE
:100AC0000860EF75F5E7012205205103000702F0E9
:100AD0009CFA194917480860184880210160402194
:100AE000016020210525016003F077F90120C00392
:100AF00029078862082030701148016949084900B7
:100B0000016177773776F574F777B7767575277063
:100B1000F776B57567703777F5753774F773022018
:100B2000B073F8BDC4000020C401002000040050D0
:100B300000240140AAAA00000030004080E100E04B
:100B4000007C00400748002141734174C1718172EB
:100B50000246403AD167017401724030016060384A
:100B6000417570470401002000E0401E0028FCD1C0
:100B700070470000054900220A7004E00B78002B42
:100B800001D00A70401E0028F8D17047C70000202D
:100B900000B507480021C170017141718171C171B7
:100BA000017241728172C172017300F015F800BDCB
:100BB0002002002000B507480121C1700171417178
:100BC0008171C171017241728172C172017300F051
:100BD00003F800BD20020020F0B5894D874E28465D
:100BE000F77829462A46002301242030403160321C
:100BF000002F7DD0D4700C77147154710C740C7666
:100C000014702C702C722C742C7604700472047482
:100C100004760C720C703779002F6AD0D471EC71A5
:100C20007779002F66D0CC77EC73B779002F7BD023
:100C3000CC75EC7504770C710C730C754C744C7698
:100C400054706C706C726C746C7644704472447442
:100C500044764C724C70F779002F7DD0CC73EC77D2
:100C6000377A002F79D0CC71C471CC70CC72CC742F
:100C7000CC76AC70AC72AC74AC76847084728474D4
:100C800084768C708C728C748C769470C476C472FA
:100C9000C470EC70C474EC76EC72EC740473047180
:100CA0002C7104752C772C732C75777A002F7DD0DE
:100CB000C477C4754C754C77C473B77A002F76D05F
:100CC00094714C716C7144736C7344758473AC7122
:100CD0008475AC738C77F27A002A69D04C734471B6
:100CE0006C776C7544778471AC77AC75847702E06F
:100CF00008E01AE01CE0307B00287AD08C718C73FD
:100D00008C75F0BDD3700B77137153710B740B7628
:100D100013702B702B722B742B7603700372037479
:100D200003760B720B7076E705E0D371EB7177E712
:100D3000CB77EB7379E7CB75EB7503770B710B739F
:100D40000B754B744B7653706B706B726B746B7668
:100D500043704372437401E004E006E043764B7253
:100D60004B7078E7CB73EB777AE7CB71C371CB70BD
:100D7000CB72CB74CB76AB70AB72AB74AB7683704B
:100D80008372837483768B708B728B748B76937083
:100D9000C376C372C370EB70C374EB76EB72EB7403
:100DA000037303712B7103752B7702E004E009E0F4
:100DB00015E02B732B7578E7C377C3754B754B77AD
:100DC000C3737AE793714B716B7143736B734375A4
:100DD0008373AB718375AB738B777CE709E04B73DF
:100DE00043716B776B7543778371AB77AB758377A3
:100DF0007DE78B718B738B75F0BD000020020020A6
:100E0000A8020020F0B5FA490878487088702021BF
:100E1000F84CA1624021A162A161A1622021A161DF
:100E2000A1624021A1622021A161A1624021A162B1
:100E30002021A161A162F04B60221918555C1A466D
:100E400068321218002D06D06025AD5C002D02D04E
:100E50004025A56101E04025A5622025A561A56288
:100E6000E34EE54F0B463678403368371D7EBE199A
:100E70004036002D05D0357E002D02D04025A561DD
:100E800001E04025A5622025A561A5621D7C002DFD
:100E900005D0357C002D02D04025A56101E040251C
:100EA000A5622025A561A5621D7A002D05D0357AA1
:100EB000002D02D04025A56101E04025A562202536
:100EC000A561A5621B78002B05D03378002B02D0DA
:100ED0004023A36101E04023A3622023A361A36216
:100EE000C34EC54F3678CB1868371D7EBE192036E5
:100EF000002D05D0357E002D02D04025A56101E0F2
:100F00004025A5622025A561A5621D7CBA4F002D54
:100F100005D0357C002D02D04025A56101E040259B
:100F2000A5622025A561A5621D7A002D05D0357A20
:100F3000002D02D04025A56101E04025A5622025B5
:100F4000A561A5621B78002B05D03378002B02D059
:100F50004023A36101E04023A3622023A361A36295
:100F60000B7E002B05D0137E002B02D04023A36103
:100F700001E04023A3622023A361A3620B7C002B2A
:100F800005D0137C002B02D04023A36101E0402355
:100F9000A3622023A361A362097A002905D0117AF4
:100FA000002902D04021A16101E04021A16220215D
:100FB000A161A162395C002907D08F496831095CC1
:100FC000002902D04021A16101E04021A16220213D
:100FD000A161A16200280ED0012835D002285CD082
:100FE00003287DD004287CD005287BD006287AD021
:100FF000072879D053E14020A0622020A061A062A0
:101000004020A0622020A061A0624020A062202099
:10101000A061A0624020A0622020A061A0624020C8
:10102000A0622020A061A0624020A0622020A061D8
:10103000A0624020A0622020A061A0624020A061A8
:101040002020A061A0622AE14020A0622020A061AF
:10105000A0624020A0622020A061A0624020A06287
:101060002020A061A0624020A0622020A061A06298
:101070004020A0622020A061A0624020A062202029
:10108000A061A0624020A0612020A061A062402059
:10109000A0622020A061A06201E14020A062202087
:1010A000A061A0624020A0622020A061A062402038
:1010B000A0622020A061A0624020A0622020A06148
:1010C000A0624020A0622020A061A0624020A06118
:1010D0002020A061A0624020A0622020A06104E046
:1010E0000AE032E05AE089E0B1E0A0624020A0626C
:1010F0002020A061A062D2E04020A0622020A06158
:10110000A0624020A0622020A061A0624020A062D6
:101110002020A061A0624020A0622020A061A062E7
:101120004020A0612020A061A0624020A062202079
:10113000A061A0624020A0622020A061A0624020A7
:10114000A0622020A061A062A9E04020A06220202F
:10115000A061A0624020A0622020A061A062402087
:10116000A0622020A061A0624020A0612020A06198
:10117000A0624020A0622020A061A0624020A06266
:101180002020A061A0624020A0622020A061A06277
:101190004020A0622020A061A06280E04020A062E8
:1011A0002020A061A0624020A0622020A061A06257
:1011B0004020A0612020A061A0624020A0622020E9
:1011C000A061A0624020A0622020A061A062402017
:1011D000A0622020A061A0624020A0622020A06127
:1011E000A0624020A0622020A061A06257E0000021
:1011F0002002002000040050400200204020A06295
:101200002020A061A0624020A0612020A061A062F7
:101210004020A0622020A061A0624020A062202087
:10122000A061A0624020A0622020A061A0624020B6
:10123000A0622020A061A0624020A0622020A061C6
:10124000A0624020A0622020A061A06227E0402090
:10125000A0612020A061A0624020A0622020A061A7
:10126000A0624020A0622020A061A0624020A06275
:101270002020A061A0624020A0622020A061A06286
:101280004020A0622020A061A0624020A062202017
:10129000A061A0624020A0622020A061A062402046
:1012A000A0612020A061A0624020A0612020A06158
:1012B000A0624020A0612020A061A0624020A06127
:1012C0002020A061A0624020A0622020A061A06236
:1012D0004020A0622020A061A0614020A0612020C9
:1012E000A0624020A062F0BD04490878401CC0B252
:1012F0000870072801D900200870704720020020DC
:1013000030B5404B01241A46002540326033012895
:1013100026D0DD7015771D715D71157415761D7001
:1013200015721570374A10462030002922D0012945
:1013300029D0022930D0032937D004293ED00529ED
:1013400045D006294CD0072953D0082907D114705D
:10135000147214741476047004720474047630BD2C
:10136000DC7014771C715C71147414761C70147228
:101370001470D7E71570157215741576057005721F
:101380000574057630BD14701572157415760570E8
:1013900005720574057630BD1470147215741576D7
:1013A000057005720574057630BD147014721474DE
:1013B0001576057005720574057630BD14701472CB
:1013C00014741476057005720574057630BD1470BA
:1013D000147214741476047005720574057630BDA9
:1013E0001470147214741476047004720574057603
:1013F00030BD147014721474147604700472047482
:10140000057630BD4002002030B501240025414B57
:1014100001282BD01D721D703E482030012928D094
:10142000C5701D77057145711D741D7605703949AC
:10143000403908462030002A23D0012A2AD0022A27
:1014400031D0032A38D0042A3FD0052A46D0062AB4
:101450004DD0072A54D0082A07D10C700C720C7496
:101460000C76047004720474047630BD1C721C7017
:10147000D2E7C4701C77047144711C741C7604702C
:10148000D5E70D700D720D740D760570057205743B
:10149000057630BD0C700D720D740D7605700572F9
:1014A0000574057630BD0C700C720D740D760570E8
:1014B00005720574057630BD0C700C720C740D76D7
:1014C000057005720574057630BD0C700C720C74D5
:1014D0000C76057005720574057630BD0C700C72C3
:1014E0000C740C76047005720574057630BD0C70B2
:1014F0000C720C740C76047004720574057630BDA1
:101500000C700C720C740C76047004720474057602
:1015100030BD000080020020F0B59446ED4E02463A
:10152000354634460127002040352034012A3ED07C
:101530002073207130712075307730733075E07210
:10154000E070F070E074F076F072F074E870E872B9
:10155000E874E876E076DF496031002B74D0012B27
:1015600073D0022B72D0032B71D0042B70D0052BBB
:101570006FD0062B6ED0072B6DD0082B6CD0092BAB
:101580006BD00A2B6AD00B2B69D00C2B68D00D2B9B
:101590000CD1B770B772B774B776A770A772A7747B
:1015A000A776AF70AF72AF74AF768F70F0BD0029C1
:1015B00012D0012918D002291ED0032924D00429D1
:1015C0002AD0052930D0062936D0072949D0082944
:1015D0004FD0092955D05BE02773277137712075EB
:1015E00037773773377553E020732071307120756A
:1015F0003077377337754BE0207327713771277554
:1016000037773773307543E0207320713771277552
:101610003777377337753BE0277320713071277543
:1016200030773773377533E027732071377127753B
:101630003777307337752BE027732771377127752C
:1016400037773073377523E08DE09AE0A7E0B4E098
:10165000C1E0CEE0DBE0E8E0F5E002E10FE11CE113
:1016600029E1207320713771207530773773377512
:101670000EE0277327713771277537773773377502
:1016800006E0277320713771277537773773377501
:101690006146002912D0012918D002291ED0032941
:1016A00024D004292AD0052930D0062936D007298C
:1016B0003CD0082942D0092948D04EE0E772E770B3
:1016C000F770E074F776F772F77446E0E072E07056
:1016D000F070E074F076F772F7743EE0E072E77055
:1016E000F770E774F776F772F07436E0E072E07046
:1016F000F770E774F776F772F7742EE0E772E07030
:10170000F070E774F076F772F77426E0E772E07035
:10171000F770E774F776F072F7741EE0E772E7701F
:10172000F770E774F776F072F77416E0E072E07025
:10173000F770E074F076F772F7740EE0E772E77016
:10174000F770E774F776F772F77406E0E772E07007
:10175000F770E774F776F772F774EF70EF72EF7463
:10176000EF76E776F7E6B070B072B074B076A0703E
:10177000A072A074A076A870A872A874A8768870C9
:10178000F0BDB770B072B074B076A070A072A074E3
:10179000A076A870A872A874A8768870F0BDB770FB
:1017A000B772B074B076A070A072A074A076A87062
:1017B000A872A874A8768870F0BDB770B772B774B5
:1017C000B076A070A072A074A076A870A872A87459
:1017D000A8768870F0BDB770B772B774B776A0708E
:1017E000A072A074A076A870A872A874A876887059
:1017F000F0BDB770B772B774B776A770A072A07457
:10180000A076A870A872A874A8768870F0BDB7708A
:10181000B772B774B776A770A772A074A076A870D5
:10182000A872A874A8768870F0BDB770B772B77444
:10183000B776A770A772A774A076A870A872A874CC
:10184000A8768870F0BDB770B772B774B776A77016
:10185000A772A774A776A870A872A874A8768870D3
:10186000F0BDB770B772B774B776A770A772A774D8
:10187000A776AF70A872A874A8768870F0BDB7700C
:10188000B772B774B776A770A772A774A776AF7050
:10189000AF72A874A8768870F0BDB770B772B774CD
:1018A000B776A770A772A774A776AF70AF72AF7440
:1018B000A8768870F0BDB770B772B774B776A770A6
:1018C000A772A774A776AF70AF72AF74AF76887047
:1018D000F0BD00004002002010B51A4C23462146FE
:1018E0002246603340312032012815D00020E071BB
:1018F000E073E075E077D071D073D075D077C871A0
:10190000C873C875C877D871487548779871887753
:1019100088718873887510BD0120E071E073E075EF
:10192000E077D071D073D075D077C871C873C8759F
:10193000C877D871487548779871887788718873A7
:10194000887510BD400200200449012802D0002003
:1019500048737047012048737047000080020020E0
:1019600070B57A4E00243346324631466033203219
:101970004031002827D00125012839D002284CD039
:1019800003285FD0042877D0052871D0062870D0AE
:1019900007286FD008286ED0092813D1F571DD71A2
:1019A000F573CD77F575CD75F577CD73D571CD71AF
:1019B000D573D575D5774D774D758D779D718D75AF
:1019C0008D738D7170BDF471DC71F473CC77F47527
:1019D000CC75F477CC73D471CC71D473D475D477BF
:1019E0004C774C758C779C718C758C738C7170BD39
:1019F000F471DC71F473CC77F475CC75F477CC7337
:101A0000D471CC71D473D475D4774C774C758C77F2
:101A10009C718D758D738D7170BDF471DC71F47373
:101A2000CC77F475CC75F477CC73D471CC71D47356
:101A3000D475D4774C774C758D779D718D758D737A
:101A40008D7170BDF471DC71F473CC77F475CC7565
:101A5000F477CC73D471CC71D473D475D4774D77BB
:101A60004D758D779D718D758D738D7170BD03E092
:101A700017E02BE03FE053E0F471DC71F473CC77B6
:101A8000F475CC75F477CC73D471CC71D573D575EE
:101A9000D5774D774D758D779D718D758D738D7162
:101AA000E4E7F471DC71F473CC77F475CC75F477FA
:101AB000CC73D571CD71D573D575D5774D774D75FF
:101AC0008D779D718D758D738D71CFE7F471DC719C
:101AD000F473CC77F475CC75F577CD73D571CD7182
:101AE000D573D575D5774D774D758D779D718D757E
:101AF0008D738D71BAE7F471DC71F473CC77F57581
:101B0000CD75F577CD73D571CD71D573D575D57785
:101B10004D774D758D779D718D758D738D71A5E7A1
:101B2000F471DC71F573CD77F575CD75F577CD73FF
:101B3000D571CD71D573D575D5774D774D758D77B9
:101B40009D718D758D738D7190E7000040020020AE
:101B50000449012802D001204871704700204871D3
:101B6000704700008002002030B5714C00252346EC
:101B70002033012810D09D739D71A5719D75A577A7
:101B8000A573A5755D735D7165715D756577657329
:101B900065755D779D7730BD0120002912D0012940
:101BA00018D002291ED0032924D004292AD00529BF
:101BB00030D0062936D007293CD0082942D009293F
:101BC00048D04EE098739871A0719D75A077A0736E
:101BD000A07546E09D739D71A5719D75A577A07355
:101BE000A0753EE09D739871A0719875A077A07361
:101BF000A57536E09D739D71A0719875A077A0734F
:101C0000A0752EE098739D71A5719875A577A07346
:101C1000A07526E098739D71A0719875A077A57343
:101C2000A0751EE098739871A0719875A077A57340
:101C3000A07516E09D739D71A0719D75A577A07329
:101C4000A0750EE098739871A0719875A077A07335
:101C5000A07506E098739D71A0719875A077A07328
:101C6000A075002A12D0012A18D0022A1ED0032AF9
:101C700024D0042A2AD0052A30D0062A36D0072AB2
:101C80003CD0082A42D0092A48D04EE058735871F7
:101C900060715D7560776073607546E05D735D715E
:101CA00065715D756577607360753EE05D73587151
:101CB0006071587560776073657536E05D735D714E
:101CC000607158756077607360752EE058735D7150
:101CD0006571587565776073607526E058735D713E
:101CE000607158756077657360751EE05873587140
:101CF0006071587560776573607516E05D735D712E
:101D000060715D756577607360750EE0587358712A
:101D10006071587560776073607506E058735D7127
:101D2000607158756077607360755877987730BDCB
:101D30004002002070B5424B01251E461A4660360F
:101D4000002420324033012828D014771C711C73E2
:101D50001C755C745C7674705C725C703848002929
:101D600026D001292DD0022934D003293BD00429C3
:101D700042D0052949D0062950D0072957D0082933
:101D800003D0092901D00A2907D14570457245744D
:101D90004576557055725574557670BD15771D7121
:101DA0001D731D755D745D7675705D725D70D5E730
:101DB000447044724474447654705472547454762B
:101DC00070BD4570447244744476547054725474B7
:101DD000547670BD457045724474447654705472A4
:101DE0005474547670BD4570457245744476547091
:101DF00054725474547670BD45704572457445767E
:101E0000547054725474547670BD45704572457464
:101E10004576557054725474547670BD4570457251
:101E200045744576557055725474547670BD45703E
:101E3000457245744576557055725574547670BD2B
:101E40004002002005490448086001200449C86098
:101E50000220C86070470000AAAA000000300040BD
:101E60000018024005490448086004200449C8607D
:101E70000820C86070470000AAAA00000030004097
:101E8000001802400F490E48086010210E48C1603A
:101E90002021C1604021C1608021C1608115C160E5
:101EA0004115C1600115C160C114C1608114C160D8
:101EB0004900C1604900C1604900C160704700002D
:101EC000AAAA000000300040001802400248006A40
:101ED000C0B2AA28FFD17047002002400248006A21
:101EE000FF210902084070470020024030B5044C31
:101EF000236AFF25284383430B431343236230BDEA
:101F00000020024070B5044600F0FAF90419084DAB
:101F100005E000F0F5F9A04201D3032070BD286967
:101F2000C043C003F5D503482861002070BD000000
:101F3000002002401180000010B5FEF717FA0B4C8C
:101F4000A0680B490840001DA060FA2109E0206844
:101F50000007C20F002A04D008202060206C83B242
:101F600002E0491E481CF2D1184610BD0024014071
:101F7000EAFFFF7FF0B587B0182101A8FEF7FDF852
:101F8000012001F057F8022001F054F8202001F060
:101F900051F87F2040020190002502950226059607
:101FA000574C01A9204600F0CBFF564801900295FE
:101FB000059601A9544800F0C3FF102005252D0700
:101FC000A8612020A8618702AF61A6610820A062F5
:101FD0002020A0624020A06203220121284601F0B7
:101FE0000AF803220221284601F005F80022042104
:101FF000284601F000F802220421284601F00FF8DB
:1020000003220821284600F0F6FF0122102128466D
:1020100000F0F1FF01222021284600F0ECFF002211
:102020004021284600F0E7FF01224021284600F029
:10203000F6FF00228021284600F0DDFFF601002295
:102040003146284600F0D7FF01223146284600F0ED
:10205000E6FF03227100284600F0CDFFF6000022C3
:102060003146284600F0C7FF01223146284600F0DD
:10207000D6FF01223946284600F0BDFF002201218B
:10208000204600F0B8FF01221146204600F0C7FFAD
:1020900001220221204600F0AEFF01220821204645
:1020A00000F0A9FF00221021204600F0A4FF022228
:1020B0001021204600F0B3FF01222021204600F02D
:1020C0009AFF01224021204600F095FF00220121C5
:1020D0000D4800F090FF022201210B4800F09FFF05
:1020E00000220421084800F086FF0222042106484D
:1020F00000F095FF0120FEF73DFD07B0F0BD0000A8
:1021000000040050E0FF00000014005001200549C9
:102110004A69C3071A434A614969002900DA002065
:102120007047000000200240F8B504464F4F387851
:10213000012875D0012038704D4840680004400FD8
:102140004C4A156881004C4840580168CBB29D420A
:1021500029D15568CE01F60DB54224D1156909047F
:10216000090E8D421FD195684168CEB2B5421AD191
:10217000D5684901490D8D4215D151698568ED0336
:10218000ED0BA9420FD19169C568ED03ED0BA94292
:1021900009D1D56901698EB2B54204D1156A8900A9
:1021A000890C8D421DD013600168C901C90D5160B1
:1021B00001880904090E11610179916041684901A2
:1021C000490DD1608168C903C90B5161C168C90358
:1021D000C90B9161018A89B2D16100698000800CCC
:1021E00010622078254DC00703D0A088C04380B27C
:1021F000E8622078800704D5E168A06809020843F6
:10220000686220680107890F03290BD041070FD5A9
:10221000FFF764FE01462269FFF768FE11E0FFE761
:102220000220F8BD2269A1696069FFF75FFE08E03E
:10223000000706D5FFF74AFE0246A1696069FFF76D
:1022400055FE686901214904084368616869C9014C
:10225000084368610749FF20803908607D20C0007D
:10226000FFF750FE00213970F8BD00001003002078
:1022700000100240002102403841000800200240C6
:10228000034841690122D206114341610120704790
:1022900000200240012005494A6983071A434A6128
:1022A0004969490000D50020704700000020024025
:1022B000012006494A69520007D5054ACA60054A05
:1022C000CA604969490000D40020704700200240DC
:1022D0003B2A19087F6E5D4C002006494A69002A96
:1022E00007DA054A8A60054A8A604969002900DAE6
:1022F000012070470020024023016745AB89EFCDE4
:1023000001488068704700003002002002480169DF
:10231000022291430161704700E000E0FEE7000007
:10232000F0B589B0FE4CA17AE07927460143403FE1
:10233000607C3E4601433D46207B203660350029C7
:102340007ED1397CFA7F11437AD0002802D0002058
:1023500078743071787C317902460A4371D02A78DA
:102360006A70EF4A4032536F9367536E936600284A
:102370000BD0002078741146803148620122D203CC
:1023800005231B079A62086319E0002917D0002073
:102390003071E349C03148620122D20305231B0793
:1023A0009A62086301202870DD4828214030416787
:1023B000FF21913141660020A0760420E0760220C2
:1023C000D84FB8620420FEF7D5FB01F035FE02209D
:1023D000B8612878002802D001281BD083E0D048BB
:1023E000CF4940304031806A4F6F40437D21784370
:1023F000C900FDF77FFE0146C94808374030406EEE
:10240000C822784378435043FDF774FEC449C03175
:10241000086068E0C248FF214030476E4B318F4270
:1024200016D3826A476F52437A437D21C900104612
:10243000FDF760FE0146781DBB4A4043504301E072
:1024400046E189E0FDF756FEB549C03108604AE033
:10245000FF2137318F4215D3826A406F5243089073
:102460007D215043C900FDF745FE01460898401DF7
:1024700047434743C8207843FDF73CFEA849C03195
:10248000086030E0FF2105318F4217D3826A406F28
:10249000524307907D215043C900FDF72BFE0146B2
:1024A0000798401D47430798801D4743C82078433D
:1024B000FDF720FE9A49C031086014E0826A406F3F
:1024C000524306907D215043C900FDF713FE01469B
:1024D0000698801D47434743C8207843FDF70AFE0E
:1024E0008F49C03108608E4BC820C0331968C82995
:1024F00000D318601968401A5860894F002040378F
:10250000F8646077A077717E00290FD09860FEF79D
:1025100019FB012262730A20186200F023FC0220DA
:1025200080498862287800280AD013E0FEF70AFB69
:102530000120E0711520786400F014FC09B0F0BDB2
:10254000E878401CC0B2E870052803D9EA70A87882
:102550005040A87022752273207B0028EED0607A4C
:1025600000282BD000207076F07630777077B07727
:10257000607601F0ABFB68782870694D4035A86F34
:102580006867AE6E6E66304619216438FDF7B2FD9D
:10259000401C207764213046FDF7ACFD0646084616
:1025A0000A21FDF7A7FDA076E676FEF7CBFA01201B
:1025B000E0711520686400F0D5FBBFE7584F403745
:1025C000F86C401CF8640590810040186421049068
:1025D000FDF790FD0A21FDF78DFD61777D21C90092
:1025E0000498FDF787FDA077386D401C3865FF2102
:1025F0009131884207D361780A2901D2491C617060
:10260000FF389138386549490598884224D101F04E
:102610005DFB68782870B86F7867B86E786603904D
:10262000039819216438FDF765FD401C207764216B
:102630000398FDF75FFD029008460A21FDF75AFD59
:10264000A0760298E076FEF77DFA0122A2720520BC
:10265000F86700F087FBB276B86D002826D029789D
:10266000002902D0012903D020E0401EB8651DE0FA
:10267000796ED2290DD8F96D491CF965032915D356
:102680000021F965052802D3401FB8650EE0B96541
:102690000CE0396E491C3966022907D300213966DE
:1026A000042802D3001FB86500E0B965B86D0028A2
:1026B0000BD01D49FDF71EFD401CC0B220760B2833
:1026C00000D03BE70A20207638E70020207635E767
:1026D000002851D001F0FAFA68782870104D403582
:1026E000A86F6867A86E6866019001981921643820
:1026F000FDF700FD401C207764210198FDF7FAFCEE
:10270000009008460A21FDF7F5FCA0760098E076D7
:10271000FEF718FA4B20C000F867FF20913007E061
:102720000401002000040050D0010100BC0700009B
:10273000286000F017FB0122B276F879002806D055
:10274000F87A002803D16320E07300F00BFBB07D22
:10275000002811D0A2750B4C0948E0620120C0038B
:102760000521090788621420FEF704FA01F064FCD1
:10277000A86AA06504486062002078743071DDE6C4
:102780007C920000C401002090D00300F8B5564CA4
:10279000207B002814D02646C036B068401CB060AC
:1027A000C82801D90120B06005237268B0681B07F2
:1027B0000021904205D81020986120209861E17294
:1027C000F8BD494D20352A78A878002A0CD010276A
:1027D0009F6220279F620127E772E37C5B1CDBB2CC
:1027E000E374022B08D009E0002802D020279F6262
:1027F000F1E710279F62EEE7E1742775637D002BF8
:10280000DED1237D002BDBD02175002A0ED00021E4
:102810003648FDF705FD306100210120FDF700FD80
:102820007061316981420FD8F1600EE0002805D057
:1028300000210120FDF7F4FCF06006E000212B48A8
:10284000FDF7EEFCF06000E0F0602948F16881429D
:10285000B6D2287800280ED000212448FDF7E0FCED
:10286000306100210120FDF7DBFC7061316981429C
:1028700010D8F1600FE0A878002805D000210120D1
:10288000FDF7CEFCF06006E000211848FDF7C8FC1B
:10289000F06000E0F0601648F168814290D201F0EB
:1028A00015FA6878287010484030816F4167856E4E
:1028B0004566284619216438FDF71CFC401C20772A
:1028C00064212846FDF716FC054608460A21FDF757
:1028D00011FCA076E576FEF735F967740B202085AC
:1028E00000F040FAF8BD00000401002002000004DE
:1028F0007A0D000010B500F0C3FB0D48016A89078E
:10290000C90F0029FAD00C490A4808600B48086032
:10291000032048607D2040018860C868800705D09A
:1029200000200028F9D00648086010BD0120F8E713
:1029300040100240CCCC0000003000405555000053
:10294000AAAA000070B51F4C607D002801D0401E6F
:10295000607505204021000700F046FB052200219C
:102960000125002821D0A07E002801D0A176627523
:10297000607D002818D1134BA07E203300281AD088
:10298000E07F002810D1E5771D71987CD97C084341
:10299000197D084308D1FEF7D5F85D75FF200A4977
:1029A0009130886300F0DEF970BDA07E0028DFD191
:1029B000A5766275DCE7E07F0028F5D0E1779D72AF
:1029C00070BD0000C4000020C4010020F8B5444CD4
:1029D000A07D002801D0401EA07501210520C9025C
:1029E000000700F001FB05210126002500280AD080
:1029F000E07E002801D0E576A175394BA07D20331B
:102A0000002806D022E0E07E0028F6D1E676A17507
:102A1000F3E7E07E002814D01878002816D11E7045
:102A20005E71987CD97C0843197D08430ED1FEF76E
:102A300089F85E75FF202B499130886300F092F988
:102A400004E01878002801D01D70DE7224495879FE
:102A50008031002805D05D711E741D2088615D7471
:102A6000CD611878002838D0187C002835D0987CA3
:102A7000002832D08869401C88611E282CD18D61C5
:102A8000486E0A304866CA6E904200D94A661448B9
:102A90004F6E6030962F03D805705020486702E0D3
:102AA000067028204867384619216438FDF722FB54
:102AB0000B4D401C4035287764213846FDF71AFB42
:102AC000064608460A21FDF715FBA876EE76FEF7C6
:102AD00039F84B20C000E067F8BD1D748D61F8BD6A
:102AE000C4000020C4010020F8B5444CE07D00285B
:102AF00001D0401EE075FF2105200131000700F0E4
:102B000073FA05210126002500280AD0207F00281D
:102B100001D02577E175394BE07D2033002806D0C0
:102B200022E0207F0028F6D12677E175F3E7207FA9
:102B3000002814D05878002816D15E709E71987CB9
:102B4000D97C0843197D08430ED1FDF7FBFF5E7564
:102B5000FF202B499130886300F004F904E0587895
:102B6000002801D05D701E732449987980310028B7
:102B700005D09D715E741D20C8611D748D615878EB
:102B8000002838D0587C002835D0987C002832D0D6
:102B9000C869401CC8611E282CD1CD61486E0A3816
:102BA00048660A6F904200D24A6614484F6E603001
:102BB000962F03D805705020486702E00670282041
:102BC0004867384619216438FDF794FA0B4D401CCC
:102BD0004035287764213846FDF78CFA06460846CA
:102BE0000A21FDF787FAA876EE76FDF7ABFF4B20BA
:102BF000C000E067F8BD5D74CD61F8BDC400002081
:102C0000C4010020F8B5544CE07C002801D0401EDF
:102C1000E0740121514800F0E7F905210125002663
:102C200000280CD0207E002801D02676E1744C4F7D
:102C30002346E07C3C46E03C002806D023E0207E92
:102C40000028F4D12576E174F1E7187E002814D02D
:102C5000587F002817D15D77A570E571A07CE17CD5
:102C60000843217D08430ED1FDF76CFF6575FF20F9
:102C70009130B86300F076F805E0587F002802D064
:102C80005E7725726573E179322000290AD0E671FA
:102C9000A17B002904D0E17B491CE173A07301E012
:102CA000E573A073617B002907D06673A17B0029BF
:102CB00003D0E17B491CE173A073A07B002801D005
:102CC000401EA073A07B00282FD12348E17B403019
:102CD000092915D00A2913D0012901D0022924D1AC
:102CE000E673A17C002920D0A17D002929D0A675FA
:102CF0007E620121C9030522120791623E6321E031
:102D0000E673A17C002911D0A674C67700F0DEFF1F
:102D1000FDF718FF25757E6300F024F87E62012020
:102D2000C0030521090788623E63F8BDA574C57715
:102D3000FDF708FFE574FE63FDF72AFF00F012F8C7
:102D4000F8BDA575007B0028FAD1FDF7FBFE4B20EE
:102D5000C000D867F8BD0000C40000200004005087
:102D6000C401002002480021416301647047000053
:102D70004401002038B50121C36800220092826816
:102D80000A40002A43D0C2683724A401A243C2608B
:102D900082685207D20F1F4C002A09D08268D206DF
:102DA000D20F002A18D1826822401032826013E0CC
:102DB000C268FF25C1352A43C260C2680325AD023F
:102DC0002A43C26072B682682240121D8260826805
:102DD00022401032826062B60124E403009404E0D1
:102DE000009A551E009500D200218268D206D20FAB
:102DF000002AF5D1009404E0009A541E009400D2F9
:102E000000218268D207D20F002AF5D1C36008469C
:102E100038BD0000EAFFFF7F012109050348026B6E
:102E20000A430263026B8A43026370470010024048
:102E300008B50449CA6B0243CA63C96B01400091DB
:102E400008BD00000010024008B504490A680243AA
:102E50000A6009680140009108BD0000401002406E
:102E600010B5002203792C4C0168002B4AD00029B0
:102E70004FD04379002B12D0012B18D0022B1ED03B
:102E800001228179002944D0234B803B01291ED0A7
:102E9000022925D003292CD00220024339E063689F
:102EA0008B436360016823680B432360E9E7236871
:102EB0008B432360016863680B436360E1E7236829
:102EC0000B432360016863680B436360D9E70168C3
:102ED0005C688C435C60006819680143196018E005
:102EE00001681C688C431C60006859680143596084
:102EF0000FE001681C680C431C60006859680143BE
:102F0000596006E023688B43236000686168814351
:102F10006160104610BD00008018024010B50A0222
:102F2000130E0A0A89070C0F044961180C6E9340AE
:102F30009C43904004430C6610BD00000018024002
:102F4000F0B500233EE001249C402240002A38D006
:102F50004F6814460668644365006519AE436743CD
:102F60003E4306604E68012E01D0022E05D18F68C7
:102F700086686743AE433E4386600F69C668AE43CA
:102F800025467D432E43C6604D68022D19D1FF2A88
:102F90000AD84D69066A544354432201121B9643D2
:102FA0006C43264306620CE04D69140A22466243D4
:102FB000624362431401A61A446A6A43B443144349
:102FC00044625B1C0A681446DC40BCD14A68012A92
:102FD00001D0022A06D10A68C968436893434A436C
:102FE000134343600120F0BD0069814301D00020FC
:102FF00070470120704710B5036849434C000C1915
:10300000A34351430B43036010BD10B5C36849434C
:103010004C000C19A34351430B43C36010BD10B5C2
:10302000C36849434C000C19A34351430B43C3608D
:1030300010BD000008B504494A6B02434A63496B5E
:103040000140009108BD00000010024010B5094980
:10305000FDF750F80849401E486108480722C36937
:103060001B021B0A4C042343C361002088610A61D0
:1030700010BD0000A861000000E000E004ED00E0E9
:103080000248016A01221143016270474010024068
:103090000149086070470000C000002010B50948D1
:1030A00001688907C90F00290BD04168022211432A
:1030B0004160064904480860FDF76AFA04490120A6
:1030C000087010BD007C0040AAAA0000003000403B
:1030D0001B010020F8B5FE48FD4C806F01264034EE
:1030E00000282FD0FA4D401EA86708210120FEF7C6
:1030F00007F90A210120FEF71DFE08220D231146C3
:103100000120FEF709FA0120FEF7E6FB082211462E
:103110000120FEF729FD0020FEF71AFD0120FEF731
:1031200013FCA86F00280BD1E879002808D0E87AB2
:10313000002805D1FDF706FD6320E073FFF712FEBE
:10314000A6746AE2E24D0027203528462A7D203009
:10315000417E002A59D00120FEF7D2F8217E0120BD
:10316000FEF7E8FD237FE27EA17E0120FEF7D4F981
:103170000020FEF7B1FBA27F617F0020FEF7F4FC88
:10318000E07FFEF7E5FCA87DFEF7DEFB2946E03197
:10319000486B401C4863A02809D8102833D3CD4978
:1031A000000940182038C777FDF716FD2BE02F7572
:1031B00000210846FEF7A4F800210846FEF7BAFDF4
:1031C0000023E27EA17E1846FEF7A6F90020FEF756
:1031D00083FB627F00201146FEF7C6FC0120FEF74C
:1031E000B7FC0020FEF7B0FBFDF7E4FCB848C1795E
:1031F000002908D0C07A002805D1FDF7A3FC632080
:10320000E073FFF7AFFDA67407E2E87C00283CD02E
:103210000120FEF775F8217E0120FEF78BFD237F4C
:10322000E27EA17E0120FEF777F90020FEF754FB35
:10323000A27F617F0020FEF797FCE07FFEF788FC0D
:10324000A87DFEF781FBA449C86B401CC863A02879
:1032500008D8102817D3A1490009081A4670FDF7AD
:10326000BBFC10E0EF744B219948C900C167C179DC
:10327000002908D0C07A002805D1FDF763FC63203F
:10328000E073FFF76FFDA674D5E3687D002838D0A2
:103290009148806B002802D08F49401E886300212E
:1032A0000846FEF72DF800210846FEF743FD0023EF
:1032B000E27EA17E1846FEF72FF90020FEF70CFBF8
:1032C000627F00201146FEF74FFCE07FFEF740FCD6
:1032D0000020FEF739FB8048806B002800D16F7515
:1032E00000280CD17A48C179002908D0C07A00287A
:1032F00005D1FDF727FC6320E073FFF733FDA674CB
:1033000099E3E07900286CD071488030406B002848
:1033100004D06F498031401E48634BE06C488030D8
:10332000406CC00727D000210846FDF7E9FF217E49
:103330000120FEF7FFFC237FE27EA17E0120FEF745
:10334000EBF80020FEF7C8FAA27F617F0120FEF7AC
:103350000BFCE07FFEF7FCFBA87DFEF7F5FA5C496D
:103360008031486C401E4864002801D032224A63F4
:1033700014281DD01EE000210120FDF7C1FF217E91
:103380000120FEF7D7FC237FE27EA17E0120FEF71D
:10339000C3F80020FEF7A0FAA27F617F0120FEF7AC
:1033A000E3FBE07FFEF7D4FBA87DFEF7CDFAD6E77E
:1033B0001420486346488030406C002800D1E771F3
:1033C00000280CD14248C179002908D0C07A0028D1
:1033D00005D1FDF7B7FB6320E073FFF7C3FCA674CC
:1033E00029E3207A002863D039488030406B0028D8
:1033F00004D037498031401E486351E03448803062
:10340000806CC00712D000210846FDF779FF00212B
:103410000846FEF78FFC0023E27EA17E1846FEF7E9
:103420007BF82D48006B00281FD021E00120FDF71C
:1034300067FF217E0120FEF77DFC237FE27EA17ED7
:103440000120FEF769F82448006B002801D1FEF73F
:1034500043FAA27F617F0020FEF786FBE07FFEF744
:1034600077FBA87DFEF770FA0DE00020FEF734FA36
:10347000A27F617F0020FEF777FBE07FFEF768FB0D
:10348000A87DFEF761FA12498031886C401E88647D
:10349000002801D032224A63062801D11420486353
:1034A0000B488030806C002800D12772A674C2E2DD
:1034B000207C002837D0064880304069002803D09F
:1034C000034A8032401E50610120FDF719FF07E0DA
:1034D000C400002023020020C40100202C02002090
:1034E00000210846FEF726FC0023E27EA17E184656
:1034F000FEF712F8FC48006B002801D1FEF7ECF94A
:10350000A27F617F0020FEF72FFBE07FFEF720FB0C
:10351000A87DFEF719FAF44880384069002800D1E8
:103520002774A67487E2607B002877D0EE4A106A81
:1035300000281DD0401E10620120FDF7E1FE217E13
:103540000120FEF7F7FB237FE27EA17E0120FDF73D
:10355000E3FF0020FEF7C0F9002211460120FEF72C
:1035600003FBE07FFEF7F4FAA87DFEF7EDF953E0E8
:10357000DD488038406B002804D0DB498039401E8C
:10358000486349E00120FDF7BBFE217E002903D0FE
:103590000120FEF7CFFB07E0D3488038006CC0075E
:1035A00032D00020FEF7C6FBCF48E27E8038006CA8
:1035B000A17EC3B20120FDF7AFFFA27F617F012092
:1035C000FEF7D2FAE07FFEF7C3FAA87DFEF7BCF95A
:1035D000C548C5498038006C401C803908640D28F6
:1035E00001D908460764C04F2820803F7863A87D32
:1035F00000280ED0FCF7A8FD0A21FCF791FD084633
:10360000F963FEF7ADF907E00120FEF793FBCBE786
:1036100004E00020FEF760F9A6740CE2607C00284C
:103620006AD0B1488038406B002804D0AE49803958
:10363000401E48634BE0208DC00728D0002108467B
:10364000FDF75EFE00210846FEF774FB0023E27ED4
:10365000A17E1846FDF760FF0020FEF73DF9627F6E
:1036600000201146FEF780FAE07FFEF771FAA87D90
:10367000FEF76AF9208D401E80B22085002803D015
:10368000994A3221803A51630A281CD01FE0012058
:10369000FDF736FE217E0120FEF74CFB237FE27E04
:1036A000A17E0120FDF738FF0120FEF715F9627FAA
:1036B00001201146FEF758FAE07FFEF749FAA87D8F
:1036C000FEF742F9D6E78848142180384163208DFF
:1036D000002800D1677400280CD18448C1790029E2
:1036E00008D0C07A002805D1FDF72CFA6320E073DA
:1036F000FFF738FBA6749EE1A07A00286BD07A48C9
:103700008038406B002804D077498039401E4863D8
:103710004AE075488038C06FC00727D000210846AE
:10372000FDF7EEFD00210846FEF704FB0023E27ED4
:10373000A17E1846FDF7F0FE0020FEF7CDF8627F6F
:1037400000201146FEF710FAE07FFEF701FAA87D8F
:10375000FEF7FAF864498039C86F401EC867002830
:1037600001D032224A6304281CD01DE00120FDF75D
:10377000C7FD217E0120FEF7DDFA237FE27EA17ED8
:103780000120FDF7C9FE0120FEF7A6F8627F0120A7
:103790001146FEF7E9F9E07FFEF7DAF9A87DFEF7BA
:1037A000D3F8D7E7142048634F488038C06F00280B
:1037B00000D1A77200280CD14C48C179002908D04B
:1037C000C07A002805D1FDF7BDF96320E073FFF74B
:1037D000C9FAA6742FE1A07B00287DD0424880382A
:1037E000406B002804D040498039401E4863C5E042
:1037F000E07B002805D0012850D00022632877D034
:103800004DE039488038006C0818C2B201210846E2
:10381000FDF7FAFD3549C86F322822D33238C86720
:10382000217E0120FEF786FA237FE27EA17E012021
:10383000FDF772FE2C48006B002801D1FEF74CF812
:10384000294880380068002805D0A27F617F0120C8
:10385000FEF78AF91BE0A27F617F0020FEF784F962
:1038600015E0CF6700210846FEF764FA0023E27EE8
:10387000A17E1846FDF750FE1B48006B002801D1C1
:10388000FEF72AF8A27F617F0020FEF76DF9E07F46
:10389000FEF75EF9A87DFEF757F85BE001220020F5
:1038A000024357D010488038006C0818C2B201217A
:1038B0000020FDF7A9FD0D49C86F14282DD3143839
:1038C000C867217E0120FEF735FA237FE27EA17EC4
:1038D0000120FDF721FE01E05AE009E00248006BFB
:1038E000002807D009E00000C4010020C400002027
:1038F0000120D5E70020FDF7EFFF5C4800680028B5
:1039000005D0A27F617F0120FEF72EF91CE0A27F87
:10391000617F0020FEF728F916E0CF6700210846F6
:10392000FEF708FA0023E27EA17E1846FDF7F4FDBB
:103930004E488030006B002801D1FDF7CDFFA27FFB
:10394000617F0020FEF710F9E07FFEF701F9A87D06
:10395000FDF7FAFF4548016C491C0164627E002AAC
:103960000ED05118082902D90021C9430164E17B16
:10397000632909D07140E17332214163A6745AE092
:103980000829F4D90764F2E714214163E773F5E7E6
:10399000364A803AD06F00282CD0401ED0670120D4
:1039A000FDF7AEFC217E0120FEF7C4F9237FE27E05
:1039B000A17E0120FDF7B0FD2C488030006B00286F
:1039C00001D1FDF789FF29480068002805D0A27FB2
:1039D000617F0120FEF7C8F804E0A27F617F00202C
:1039E000FEF7C2F8E07FFEF7B3F8A87DFDF7ACFF65
:1039F000A67420E000210846FDF782FC002108465D
:103A0000FEF798F90023E27EA17E1846FDF784FDBB
:103A100016488030006B002801D1FDF75DFF627F02
:103A200000201146FEF7A0F80120FEF791F80020D3
:103A3000FDF78AFFA7740D498031086B002814D068
:103A4000401E0863094DA86B002802D0401EA863E1
:103A50000AE02820A863FCF777FB0A21FCF760FB4B
:103A60000846E963FDF77CFFA674F8BD4401002019
:103A700070B5544C0125606C0026192858D2401CA2
:103A8000606400215048FCF7CBFBA16D48434F49CF
:103A9000FCF730FBA0644E49884201D8E66441E05F
:103AA0004B49C9434118312901D8E5643AE04949F5
:103AB0004118312902D80220E06433E04549323907
:103AC0004118312902D80320E0642BE041496439D0
:103AD0004118312902D80420E06423E03D49963999
:103AE0004118312902D80520E0641BE03949C83962
:103AF0004118312902D80620E06413E03549FA392B
:103B00004118312902D80720E0640BE032494118FE
:103B1000312902D80820E06404E03049884201D904
:103B20000920E064216DE06C88423DD920653BE0CE
:103B30006664206D6065012835D0224980390228ED
:103B40000ED003280CD0042810D005280ED006284B
:103B500016D0072814D008281CD009281AD022E033
:103B6000886B02281FD3401E88631CE0886B0328E3
:103B700002D3801E886316E0002814D08D6312E003
:103B8000886B042802D3C01E88630CE000280AD08A
:103B90008D6308E0886B052802D3001F886302E06C
:103BA000002800D08D632665606D002809D0C820EC
:103BB00020630448C038817D002902D086750848FA
:103BC000606270BDC40100200800000C6810000095
:103BD000E2040000EBFAFFFFBFF9FFFF72060000EE
:103BE000C0C62D0070B51F4CA07B002801D0401E20
:103BF000A073052004210007FFF7F6F90222002137
:103C00000125012821D0E07B002801D0E173A273B7
:103C1000A07B002818D1E07B00281CD0207C002845
:103C200012D1257465740F4B2033987CD97C0843DE
:103C3000197D084308D1FCF785FF5D75FF200A490F
:103C400091308863FFF78EF870BDE07B0028DFD1EC
:103C5000E573A273DCE7207C0028F5D02174A574FD
:103C600070BD0000C4000020C401002070470000A7
:103C7000C106C90E01208840014908607047000054
:103C800000E100E08307FF22DB0E9A408907090E5E
:103C9000994000280BDA0007000F0838830808480D
:103CA0009B001818C36993430B43C3617047830893
:103CB00004489B001818036893430B430360704744
:103CC00000ED00E000E400E0704770470C48002180
:103CD0000173102205231B079A6120229A61C17289
:103CE0000220084A906106480A22C0308261C82238
:103CF000C26101230246E03AD375016470470000B7
:103D0000040100200004005010B500F0CFF910BDF0
:103D100010B51B4801688215114301601949098AD1
:103D2000CA040121D20CC90351184268120C1204B2
:103D30000A43426001684905C90F0029FAD0816829
:103D40000F221202914381608168C908C900816015
:103D50003822816811400029FBD10B490A685208BA
:103D600052000A6081680722120391438160074C68
:103D70002046FFF76BF92046FFF78AF910BD0000D7
:103D800000100240000FFF1F0020024000366E01AD
:103D900007484168074842680123120C12045B037C
:103DA0001A43114341600449C00388607047000012
:103DB000000FFF1F0010024000ED00E002E008C805
:103DC000121F08C1002AFAD170477047002001E095
:103DD00001C1121F002AFBD1704710B5FFF798FFF1
:103DE000FEF7C8F862B6FCF7D1FAFEF783FDFCF7E0
:103DF000DDFA10BD6B48FCF7B7FEFFF7EEFFFCF7EE
:103E0000A7FB694908200870FF20913088674B2282
:103E1000D200CA67644C01212034A17425462035A4
:103E2000E977A1750022234640339A7096261F46F3
:103E300020377E66F866642038671A7050207867ED
:103E4000032028770520A876E9765848B8650A2027
:103E5000287600206877A87708266676E6762677A3
:103E60006E76E1752176FCF7A9FB6E700220504951
:103E700088618003052109078862FCF79BFE4E4993
:103E80004C480860484881780029F8D000268670A0
:103E9000C21DF932106CD16903460B4308D00028CB
:103EA00001D0401E1064002904D0491ED16101E0F8
:103EB000FCF784FB3C48C079002810D03F49F868E3
:103EC000884201D2401CF860287B002822D0F86884
:103ED000142802D31438F8601CE0FE601AE0F86879
:103EE000002802D0401EF86014E0A87C002811D001
:103EF000287B00280ED13249786D884201D2401CBF
:103F00007865786D884205D37E6568780A2801D285
:103F1000401C6870FCF77CFC2348E17C806F084300
:103F2000217D084303D1FEF76DFEFEF70BFD1E4910
:103F3000287B896F0843E17C084302D1207D00285B
:103F40000BD02674BE616674FE611748E17C806FF9
:103F50000843217D084305D006E0FEF737FDFEF754
:103F6000C3FDF2E7FFF73EFE0F48816F002908D13D
:103F7000A17C002905D0E17C002902D1217D002906
:103F80000DD0467426713868002801D0401E386074
:103F9000FFF7A0F8FCF764FCFCF71AFD6FE7FEF7EB
:103FA000BFF9F0E780841E00C400002020120A0040
:103FB00000040050AAAA00000030004060EA00009F
:103FC000F03C000070B51848184C006A2062206A66
:103FD0007D21000FC9004843216A64220901090FAD
:103FE00051434118206A0A220002000F504308186A
:103FF000216A25460903090F4018803DE8660C49EF
:104000004018652802D34B200001E86602210948C8
:10401000FCF706F90146E86E0003FCF76BF86062F6
:104020001E30A06270BD0000000EFF1F4401002082
:1040300082FBFFFF001000B070B51848184C006AF2
:104040002062206A7D21000FC9004843216A642252
:104050000901090F51434118206A0A220002000F8A
:1040600050430818216A25460903090F4018803D6E
:1040700028670C494018652802D34B2000012867A7
:10408000C8210948FCF7CCF80146286F0003FCF76B
:1040900031F860621E30A06270BD0000000EFF1F8C
:1040A0004401002082FBFFFF001000B070B52048E3
:1040B000807C002801D0FEF769FB1D482030818CF0
:1040C000491C89B2818403460022403B01247D299A
:1040D00001D182849C70164D60356968491C696005
:1040E000144EB14201D16A605C70C18C491C89B226
:1040F000C184192901D1C284DC70A868401CA86061
:10410000322805D1AA601C71FDF7EEF8FCF77AFEA3
:104110000749E031486A002806D0401E4862C86A54
:10412000002802D0401EC86270BDFFF7A1FC70BD20
:10413000E400002048E801001C0FFF1F300FFF1FA4
:10414000440FFF1F580FFF1F6C0FFF1F1C0FFF1F97
:104150001C0FFF1F1C0FFF1F7841000800000020EC
:1041600040020000B4010008844100084002002021
:10417000E8040000CC3D000801C203FF127A017080
:044180004204C20132
:04000005080000C12E
:00000001FF
